{
  "_format": "hh-sol-artifact-1",
  "contractName": "MagicNumber",
  "sourceName": "contracts/MagicNumber.sol",
  "abi": [
    {
      "inputs": [],
      "name": "ZeroNumberNotAllowed",
      "type": "error"
    },
    {
      "anonymous": false,
      "inputs": [
        {
          "indexed": true,
          "internalType": "uint256",
          "name": "magicNumber",
          "type": "uint256"
        },
        {
          "indexed": true,
          "internalType": "address",
          "name": "owner",
          "type": "address"
        }
      ],
      "name": "NewNumberReset",
      "type": "event"
    },
    {
      "anonymous": false,
      "inputs": [
        {
          "indexed": true,
          "internalType": "uint256",
          "name": "magicNumber",
          "type": "uint256"
        },
        {
          "indexed": true,
          "internalType": "address",
          "name": "owner",
          "type": "address"
        }
      ],
      "name": "NewNumberSet",
      "type": "event"
    },
    {
      "inputs": [],
      "name": "decimals",
      "outputs": [
        {
          "internalType": "uint256",
          "name": "",
          "type": "uint256"
        }
      ],
      "stateMutability": "view",
      "type": "function"
    },
    {
      "inputs": [],
      "name": "getMagicStats",
      "outputs": [
        {
          "internalType": "uint256",
          "name": "_magicSum",
          "type": "uint256"
        },
        {
          "internalType": "uint256",
          "name": "_participantCount",
          "type": "uint256"
        }
      ],
      "stateMutability": "view",
      "type": "function"
    },
    {
      "inputs": [
        {
          "internalType": "address",
          "name": "",
          "type": "address"
        }
      ],
      "name": "magicNumber",
      "outputs": [
        {
          "internalType": "uint256",
          "name": "",
          "type": "uint256"
        }
      ],
      "stateMutability": "view",
      "type": "function"
    },
    {
      "inputs": [
        {
          "internalType": "uint256",
          "name": "_magicNumber",
          "type": "uint256"
        }
      ],
      "name": "setNumber",
      "outputs": [],
      "stateMutability": "nonpayable",
      "type": "function"
    }
  ],
  "bytecode": "0x608060405234801561001057600080fd5b506104bf806100206000396000f3fe608060405234801561001057600080fd5b506004361061004c5760003560e01c806326b0dd1414610051578063313ce567146100815780633fb5c1cb1461009f5780636a9fbca0146100bb575b600080fd5b61006b6004803603810190610066919061030f565b6100da565b6040516100789190610355565b60405180910390f35b6100896100f2565b6040516100969190610355565b60405180910390f35b6100b960048036038101906100b4919061039c565b6100fe565b005b6100c361029b565b6040516100d19291906103c9565b60405180910390f35b60006020528060005260406000206000915090505481565b670de0b6b3a764000081565b60008103610138576040517fd591132300000000000000000000000000000000000000000000000000000000815260040160405180910390fd5b60008060003373ffffffffffffffffffffffffffffffffffffffff1673ffffffffffffffffffffffffffffffffffffffff168152602001908152602001600020549050600081036101dd5760016002600082825401925050819055503373ffffffffffffffffffffffffffffffffffffffff16827f0ef3e279b9f0051a5e1e312687a43c2906c07d77169e345847c94e6b544bb34e60405160405180910390a361023b565b80600160008282546101ef9190610421565b925050819055503373ffffffffffffffffffffffffffffffffffffffff16827fa19cd8706019964d956a3e50cd7f51a8a34c58aa8c6aa39d2cab859e22863a9960405160405180910390a35b816000803373ffffffffffffffffffffffffffffffffffffffff1673ffffffffffffffffffffffffffffffffffffffff1681526020019081526020016000208190555081600160008282546102909190610455565b925050819055505050565b600080600154915060025490509091565b600080fd5b600073ffffffffffffffffffffffffffffffffffffffff82169050919050565b60006102dc826102b1565b9050919050565b6102ec816102d1565b81146102f757600080fd5b50565b600081359050610309816102e3565b92915050565b600060208284031215610325576103246102ac565b5b6000610333848285016102fa565b91505092915050565b6000819050919050565b61034f8161033c565b82525050565b600060208201905061036a6000830184610346565b92915050565b6103798161033c565b811461038457600080fd5b50565b60008135905061039681610370565b92915050565b6000602082840312156103b2576103b16102ac565b5b60006103c084828501610387565b91505092915050565b60006040820190506103de6000830185610346565b6103eb6020830184610346565b9392505050565b7f4e487b7100000000000000000000000000000000000000000000000000000000600052601160045260246000fd5b600061042c8261033c565b91506104378361033c565b925082820390508181111561044f5761044e6103f2565b5b92915050565b60006104608261033c565b915061046b8361033c565b9250828201905080821115610483576104826103f2565b5b9291505056fea26469706673582212204a0fd5b694f5573ae1163c3ee95aac558b06aee7356464785801f46975dbb02764736f6c63430008110033",
  "linkReferences": {},
  "deployedLinkReferences": {}
}